{
  "_format": "hh-sol-artifact-1",
  "contractName": "PlonkVerifier",
  "sourceName": "contracts/Verifier_c1.sol",
  "abi": [
    {
      "inputs": [
        {
          "internalType": "uint256[24]",
          "name": "_proof",
          "type": "uint256[24]"
        },
        {
          "internalType": "uint256[1]",
          "name": "_pubSignals",
          "type": "uint256[1]"
        }
      ],
      "name": "verifyProof",
      "outputs": [
        {
          "internalType": "bool",
          "name": "",
          "type": "bool"
        }
      ],
      "stateMutability": "view",
      "type": "function"
    }
  ],
  "bytecode": "0x6080604052348015600f57600080fd5b506119c18061001f6000396000f3fe608060405234801561001057600080fd5b506004361061002b5760003560e01c8063ff7240a714610030575b600080fd5b61004a60048036038101906100459190611913565b610060565b6040516100579190611970565b60405180910390f35b6000611856565b600080600184846000805b821561009c5782840591508482028603905084955080945082820284039050829350809250610072565b60018411156100aa57600080fd5b60008612156100b95788860195505b85965050505050505092915050565b60405181602084028301815160208301925060005b82841015610120578185527f30644e72e131a029b85045b68181585d2833e84879b9709143e1f593f00000018451830991506020850194506020840193506100dd565b61014a7f30644e72e131a029b85045b68181585d2833e84879b9709143e1f593f000000183610067565b91506020850394506020840393508592505b828411156101c6577f30644e72e131a029b85045b68181585d2833e84879b9709143e1f593f00000018551830990507f30644e72e131a029b85045b68181585d2833e84879b9709143e1f593f000000184518309915080845260208503945060208403935061015c565b81845250505050505050565b7f30644e72e131a029b85045b68181585d2833e84879b9709143e1f593f00000018110610203576000805260206000f35b50565b610212610244356101d2565b61021e610264356101d2565b61022a610284356101d2565b6102366102a4356101d2565b6102426102c4356101d2565b61024e6102e4356101d2565b565b6000806040517f1ee9fed57ecb2a797897f8cb9cc91396016b7475935470412f5ad826eee5704181527f03f63abd7064803908511864fef86e216b4c0cf40b12d5634b5dcd7c11d0123e60208201527f2d699850ed2aa3b7842407d2787b87dd206a01317ef1f37dd3c3754775e8efc160408201527f0c78e45fcb8d1214c15dc91b8528277cf4d0e8cabdc92b771608c7bdfb33d55d606082015260006080820152600060a08201527f1ee9fed57ecb2a797897f8cb9cc91396016b7475935470412f5ad826eee5704160c08201527f2c6e13b570cd1ff0afff2d518288ea3c2c355d9d5d5ef529f0c2be9ac6aceb0960e0820152600061010082015260006101208201527f0e563f3759167d85ebfb9c999f4231427c4dc81acd9caf20d862a0eb7be6461a6101408201527f14eeed896ec627693cb85e37244f15773af23b42b75873cdf3c1f61866643c136101608201527f139b7f3d2a98c15f8a92e6f87a4e25e2effaaaa2251ce92e53c9269edc954d866101808201527f13daf969003014b56da8486540645356478273f2e921395447506c88d7d295446101a08201527f07f525ded40357e87fb0699970d1659cb8910a1834fd1d0faf39a709a02826956101c08201527f295c958d8da6376a5af7b55e5f8f2cf898be5b8b093e2357604cb3c590a7a3b96101e082015260008501356102008201526004356102208201526020600401356102408201526044356102608201526020604401356102808201526084356102a08201526020608401356102c08201527f30644e72e131a029b85045b68181585d2833e84879b9709143e1f593f00000016102e082200692508260208501527f30644e72e131a029b85045b68181585d2833e84879b9709143e1f593f0000001602080860120066040850152602084015181526040840151602082015260c4356040820152602060c4013560608201527f30644e72e131a029b85045b68181585d2833e84879b9709143e1f593f0000001608082200691508160008501527f30644e72e131a029b85045b68181585d2833e84879b9709143e1f593f00000018283096102c08501528181526101043560208201526020610104013560408201526101443560608201526020610144013560808201526101843560a08201526020610184013560c08201527f30644e72e131a029b85045b68181585d2833e84879b9709143e1f593f000000160e082200691508160608501528181526102443560208201526102643560408201526102843560608201526102a43560808201526102c43560a08201526102e43560c08201527f30644e72e131a029b85045b68181585d2833e84879b9709143e1f593f000000160e08220068060c08601527f30644e72e131a029b85045b68181585d2833e84879b9709143e1f593f000000183850960a08601527f30644e72e131a029b85045b68181585d2833e84879b9709143e1f593f000000183840992507f30644e72e131a029b85045b68181585d2833e84879b9709143e1f593f000000183840992507f30644e72e131a029b85045b68181585d2833e84879b9709143e1f593f000000183840992508260808601527f30644e72e131a029b85045b68181585d2833e84879b9709143e1f593f0000001806001850301069250826102e0860152826103008601527f30644e72e131a029b85045b68181585d2833e84879b9709143e1f593f000000181820992508260e08601527f30644e72e131a029b85045b68181585d2833e84879b9709143e1f593f00000018184099250826101008601527f30644e72e131a029b85045b68181585d2833e84879b9709143e1f593f00000018184099250826101208601527f30644e72e131a029b85045b68181585d2833e84879b9709143e1f593f00000018184099250826101408601526101c435825260206101c4013560208301526102043560408301526020610204013560608301527f30644e72e131a029b85045b68181585d2833e84879b9709143e1f593f00000016080832006610160860152505050505050565b60017f30644e72e131a029b85045b68181585d2833e84879b9709143e1f593f0000001807f30644e72e131a029b85045b68181585d2833e84879b9709143e1f593f0000001836060860151030106600809610320830152610883600261030084016100c8565b6102e0820151600191507f30644e72e131a029b85045b68181585d2833e84879b9709143e1f593f00000018161032085015109610320840152505050565b60007f30644e72e131a029b85045b68181585d2833e84879b9709143e1f593f0000001807f30644e72e131a029b85045b68181585d2833e84879b9709143e1f593f000000160008601356103208601510983030106905080610180830152505050565b6101808101517f30644e72e131a029b85045b68181585d2833e84879b9709143e1f593f00000016102c0830151610320840151097f30644e72e131a029b85045b68181585d2833e84879b9709143e1f593f0000001806102a43560208601510961024435087f30644e72e131a029b85045b68181585d2833e84879b9709143e1f593f00000016040850151820890507f30644e72e131a029b85045b68181585d2833e84879b9709143e1f593f0000001806102c43560208701510961026435087f30644e72e131a029b85045b68181585d2833e84879b9709143e1f593f00000016040860151820890507f30644e72e131a029b85045b68181585d2833e84879b9709143e1f593f0000001604086015161028435087f30644e72e131a029b85045b68181585d2833e84879b9709143e1f593f0000001817f30644e72e131a029b85045b68181585d2833e84879b9709143e1f593f0000001848609097f30644e72e131a029b85045b68181585d2833e84879b9709143e1f593f00000016102e435820990507f30644e72e131a029b85045b68181585d2833e84879b9709143e1f593f00000016000880151820990507f30644e72e131a029b85045b68181585d2833e84879b9709143e1f593f000000180867f30644e72e131a029b85045b68181585d2833e84879b9709143e1f593f0000001030687087f30644e72e131a029b85045b68181585d2833e84879b9709143e1f593f000000180837f30644e72e131a029b85045b68181585d2833e84879b9709143e1f593f0000001030682089050806101a08901525050505050505050565b81518152602082015160208201525050565b818152826020820152505050565b81358152602082013560208201525050565b6040518151815260208201516020820152825160408201526020830151606082015260408260808360066107d05a03fa80610be7576000805260206000f35b50505050565b600060405183815284602082015285604082015260408160608360076107d05a03fa915081610c20576000805260206000f35b825160408201526020830151606082015260408360808360066107d05a03fa915081610c50576000805260206000f35b505050505050565b600060405183815284602082015285604082015260408360608360076107d05a03fa915081610c8b576000805260206000f35b505050505050565b610ca4836020840151845184610c58565b505050565b6101c0810160408201516040516101008101604052610cca60008085610b88565b610d3f7f30644e72e131a029b85045b68181585d2833e84879b9709143e1f593f00000016102643561024435097f03f63abd7064803908511864fef86e216b4c0cf40b12d5634b5dcd7c11d0123e7f1ee9fed57ecb2a797897f8cb9cc91396016b7475935470412f5ad826eee5704186610bed565b610d8e610244357f0c78e45fcb8d1214c15dc91b8528277cf4d0e8cabdc92b771608c7bdfb33d55d7f2d699850ed2aa3b7842407d2787b87dd206a01317ef1f37dd3c3754775e8efc186610bed565b610d9e6102643560008086610bed565b610ded610284357f2c6e13b570cd1ff0afff2d518288ea3c2c355d9d5d5ef529f0c2be9ac6aceb097f1ee9fed57ecb2a797897f8cb9cc91396016b7475935470412f5ad826eee5704186610bed565b60a08401517f30644e72e131a029b85045b68181585d2833e84879b9709143e1f593f0000001837f30644e72e131a029b85045b68181585d2833e84879b9709143e1f593f0000001836102443508087f30644e72e131a029b85045b68181585d2833e84879b9709143e1f593f0000001847f30644e72e131a029b85045b68181585d2833e84879b9709143e1f593f000000180600286096102643508087f30644e72e131a029b85045b68181585d2833e84879b9709143e1f593f0000001857f30644e72e131a029b85045b68181585d2833e84879b9709143e1f593f000000180600387096102843508087f30644e72e131a029b85045b68181585d2833e84879b9709143e1f593f000000160008901517f30644e72e131a029b85045b68181585d2833e84879b9709143e1f593f0000001837f30644e72e131a029b85045b68181585d2833e84879b9709143e1f593f000000186880909097f30644e72e131a029b85045b68181585d2833e84879b9709143e1f593f00000016102c08a01516103208b015109610f8260c460c08901610b96565b610fdb7f30644e72e131a029b85045b68181585d2833e84879b9709143e1f593f00000016101608c01517f30644e72e131a029b85045b68181585d2833e84879b9709143e1f593f00000018486080860c0890189610c93565b7f30644e72e131a029b85045b68181585d2833e84879b9709143e1f593f0000001887f30644e72e131a029b85045b68181585d2833e84879b9709143e1f593f0000001806102a43560208f01510961024435080894507f30644e72e131a029b85045b68181585d2833e84879b9709143e1f593f0000001887f30644e72e131a029b85045b68181585d2833e84879b9709143e1f593f0000001806102c43560208f01510961026435080893507f30644e72e131a029b85045b68181585d2833e84879b9709143e1f593f00000016102e4357f30644e72e131a029b85045b68181585d2833e84879b9709143e1f593f000000160208d015160008e0151090992506111707f30644e72e131a029b85045b68181585d2833e84879b9709143e1f593f0000001847f30644e72e131a029b85045b68181585d2833e84879b9709143e1f593f0000001878909097f295c958d8da6376a5af7b55e5f8f2cf898be5b8b093e2357604cb3c590a7a3b97f07f525ded40357e87fb0699970d1659cb8910a1834fd1d0faf39a709a028269560408b01610c58565b61117f61010460808901610b96565b61119b60808b0151602061014401356101443560808b01610bed565b7f30644e72e131a029b85045b68181585d2833e84879b9709143e1f593f000000160808b015160808c0151096111df81602061018401356101843560808c01610bed565b6111fb6102e08c015160a08a015160808b015160808c01610c58565b7f30644e72e131a029b85045b68181585d97816a916871ca8d3c208c16d87cfd47602060408a0101517f30644e72e131a029b85045b68181585d97816a916871ca8d3c208c16d87cfd470306602060408a0101527f30644e72e131a029b85045b68181585d97816a916871ca8d3c208c16d87cfd4760a08901517f30644e72e131a029b85045b68181585d97816a916871ca8d3c208c16d87cfd47030660a08901526112a7888b610ba8565b6112b4604089018b610ba8565b6112c1608089018b610ba8565b5050505050505050505050565b61020081016112e16101c0830182610b76565b6112f860c083015160206004013560043584610bed565b61130f60e083015160206044013560443584610bed565b61132761010083015160206084013560843584610bed565b6113786101208301517f14eeed896ec627693cb85e37244f15773af23b42b75873cdf3c1f61866643c137f0e563f3759167d85ebfb9c999f4231427c4dc81acd9caf20d862a0eb7be6461a84610bed565b6113c96101408301517f13daf969003014b56da8486540645356478273f2e921395447506c88d7d295447f139b7f3d2a98c15f8a92e6f87a4e25e2effaaaa2251ce92e53c9269edc954d8684610bed565b5050565b7f30644e72e131a029b85045b68181585d2833e84879b9709143e1f593f00000016101a08201517f30644e72e131a029b85045b68181585d2833e84879b9709143e1f593f000000103067f30644e72e131a029b85045b68181585d2833e84879b9709143e1f593f00000018060c08401516102443509820890507f30644e72e131a029b85045b68181585d2833e84879b9709143e1f593f00000018060e08401516102643509820890507f30644e72e131a029b85045b68181585d2833e84879b9709143e1f593f0000001806101008401516102843509820890507f30644e72e131a029b85045b68181585d2833e84879b9709143e1f593f0000001806101208401516102a43509820890507f30644e72e131a029b85045b68181585d2833e84879b9709143e1f593f0000001806101408401516102c43509820890507f30644e72e131a029b85045b68181585d2833e84879b9709143e1f593f0000001806101608401516102e435098208905061154d81600260016102408601610c58565b5050565b6000604051610240810160405261018081016101c0820161020083016115796101c484610b96565b61158561020483610b96565b6115956101608701518386610c93565b61159f8385610ba8565b7f30644e72e131a029b85045b68181585d97816a916871ca8d3c208c16d87cfd4760208501517f30644e72e131a029b85045b68181585d97816a916871ca8d3c208c16d87cfd47030660208501527f228f5a72c1ba65a5768c4d586f2ea0d42ddbea413037173d2da5861e7d259dd660408501527f19a199df22a31e64c2a48a1cd0f0c0222237c5a5842e316d2e956623f62ad60f60608501527f11600b6358a8d7922377ad44766daf5cd6ee25aeb69e8e0704f2b19061e2101060808501527f0dddbf6229fa66fa896fa8b6d8f8695360a642b307eb29d087673ffd194395e860a085015261169760608701518460c08701610c93565b7f30644e72e131a029b85045b68181585d2833e84879b9709143e1f593f00000016060870151610160880151097f30644e72e131a029b85045b68181585d2833e84879b9709143e1f593f00000017f2b337de1c8c14f22ec9b9e2f96afef3652627366f8170a0a948dad4ac1bd5e8082099050611715818484610c93565b6117228260c08701610ba8565b611733610200880160c08701610ba8565b7f30644e72e131a029b85045b68181585d97816a916871ca8d3c208c16d87cfd476020610240018801517f30644e72e131a029b85045b68181585d97816a916871ca8d3c208c16d87cfd47030660206102400188015261179a610240880160c08701610ba8565b7f198e9393920d483a7260bfb731fb5d25f1aa493335a9e71297e485b7aef312c26101008601527f1800deef121f1e76426a00665e5c4479674322d4f75edadd46debd5cd992f6ed6101208601527f090689d0585ff075ec9e99ad690c3395bc4b313370b38ef355acdadcd122975b6101408601527f12c85ea5db8c6deb4aab71808dcb408fe3d1e7690c43d37b4ce6cc0166fa7daa6101608601526020856101808760086107d05a03fa855181169650505050505050919050565b6040516103408101604052611869610206565b6118738382610250565b61187c8161081d565b61188683826108c1565b61188f81610924565b61189881610ca9565b6118a1816112ce565b6118aa816113cd565b6118b381611551565b61034082036040528060005260206000f35b600080fd5b600080fd5b6000819050826020601802820111156118eb576118ea6118ca565b5b92915050565b60008190508260206001028201111561190d5761190c6118ca565b5b92915050565b600080610320838503121561192b5761192a6118c5565b5b6000611939858286016118cf565b92505061030061194b858286016118f1565b9150509250929050565b60008115159050919050565b61196a81611955565b82525050565b60006020820190506119856000830184611961565b9291505056fea26469706673582212200e73ebaacdabfbf9e8694b71a3e2a8bce3e81430c9f107ec9b0dc704345f867064736f6c634300081c0033",
  "linkReferences": {},
  "deployedLinkReferences": {}
}