{"contracts/Verifier_c1.sol":{"PlonkVerifier":{"abi":[{"inputs":[{"internalType":"uint256[24]","name":"_proof","type":"uint256[24]"},{"internalType":"uint256[1]","name":"_pubSignals","type":"uint256[1]"}],"name":"verifyProof","outputs":[{"internalType":"bool","name":"","type":"bool"}],"stateMutability":"view","type":"function"}],"evm":{"bytecode":{"linkReferences":{},"object":"6080604052348015600f57600080fd5b506119c18061001f6000396000f3fe608060405234801561001057600080fd5b506004361061002b5760003560e01c8063ff7240a714610030575b600080fd5b61004a60048036038101906100459190611913565b610060565b6040516100579190611970565b60405180910390f35b6000611856565b600080600184846000805b821561009c5782840591508482028603905084955080945082820284039050829350809250610072565b60018411156100aa57600080fd5b60008612156100b95788860195505b85965050505050505092915050565b60405181602084028301815160208301925060005b82841015610120578185527f30644e72e131a029b85045b68181585d2833e84879b9709143e1f593f00000018451830991506020850194506020840193506100dd565b61014a7f30644e72e131a029b85045b68181585d2833e84879b9709143e1f593f000000183610067565b91506020850394506020840393508592505b828411156101c6577f30644e72e131a029b85045b68181585d2833e84879b9709143e1f593f00000018551830990507f30644e72e131a029b85045b68181585d2833e84879b9709143e1f593f000000184518309915080845260208503945060208403935061015c565b81845250505050505050565b7f30644e72e131a029b85045b68181585d2833e84879b9709143e1f593f00000018110610203576000805260206000f35b50565b610212610244356101d2565b61021e610264356101d2565b61022a610284356101d2565b6102366102a4356101d2565b6102426102c4356101d2565b61024e6102e4356101d2565b565b6000806040517f1ee9fed57ecb2a797897f8cb9cc91396016b7475935470412f5ad826eee5704181527f03f63abd7064803908511864fef86e216b4c0cf40b12d5634b5dcd7c11d0123e60208201527f2d699850ed2aa3b7842407d2787b87dd206a01317ef1f37dd3c3754775e8efc160408201527f0c78e45fcb8d1214c15dc91b8528277cf4d0e8cabdc92b771608c7bdfb33d55d606082015260006080820152600060a08201527f1ee9fed57ecb2a797897f8cb9cc91396016b7475935470412f5ad826eee5704160c08201527f2c6e13b570cd1ff0afff2d518288ea3c2c355d9d5d5ef529f0c2be9ac6aceb0960e0820152600061010082015260006101208201527f0e563f3759167d85ebfb9c999f4231427c4dc81acd9caf20d862a0eb7be6461a6101408201527f14eeed896ec627693cb85e37244f15773af23b42b75873cdf3c1f61866643c136101608201527f139b7f3d2a98c15f8a92e6f87a4e25e2effaaaa2251ce92e53c9269edc954d866101808201527f13daf969003014b56da8486540645356478273f2e921395447506c88d7d295446101a08201527f07f525ded40357e87fb0699970d1659cb8910a1834fd1d0faf39a709a02826956101c08201527f295c958d8da6376a5af7b55e5f8f2cf898be5b8b093e2357604cb3c590a7a3b96101e082015260008501356102008201526004356102208201526020600401356102408201526044356102608201526020604401356102808201526084356102a08201526020608401356102c08201527f30644e72e131a029b85045b68181585d2833e84879b9709143e1f593f00000016102e082200692508260208501527f30644e72e131a029b85045b68181585d2833e84879b9709143e1f593f0000001602080860120066040850152602084015181526040840151602082015260c4356040820152602060c4013560608201527f30644e72e131a029b85045b68181585d2833e84879b9709143e1f593f0000001608082200691508160008501527f30644e72e131a029b85045b68181585d2833e84879b9709143e1f593f00000018283096102c08501528181526101043560208201526020610104013560408201526101443560608201526020610144013560808201526101843560a08201526020610184013560c08201527f30644e72e131a029b85045b68181585d2833e84879b9709143e1f593f000000160e082200691508160608501528181526102443560208201526102643560408201526102843560608201526102a43560808201526102c43560a08201526102e43560c08201527f30644e72e131a029b85045b68181585d2833e84879b9709143e1f593f000000160e08220068060c08601527f30644e72e131a029b85045b68181585d2833e84879b9709143e1f593f000000183850960a08601527f30644e72e131a029b85045b68181585d2833e84879b9709143e1f593f000000183840992507f30644e72e131a029b85045b68181585d2833e84879b9709143e1f593f000000183840992507f30644e72e131a029b85045b68181585d2833e84879b9709143e1f593f000000183840992508260808601527f30644e72e131a029b85045b68181585d2833e84879b9709143e1f593f0000001806001850301069250826102e0860152826103008601527f30644e72e131a029b85045b68181585d2833e84879b9709143e1f593f000000181820992508260e08601527f30644e72e131a029b85045b68181585d2833e84879b9709143e1f593f00000018184099250826101008601527f30644e72e131a029b85045b68181585d2833e84879b9709143e1f593f00000018184099250826101208601527f30644e72e131a029b85045b68181585d2833e84879b9709143e1f593f00000018184099250826101408601526101c435825260206101c4013560208301526102043560408301526020610204013560608301527f30644e72e131a029b85045b68181585d2833e84879b9709143e1f593f00000016080832006610160860152505050505050565b60017f30644e72e131a029b85045b68181585d2833e84879b9709143e1f593f0000001807f30644e72e131a029b85045b68181585d2833e84879b9709143e1f593f0000001836060860151030106600809610320830152610883600261030084016100c8565b6102e0820151600191507f30644e72e131a029b85045b68181585d2833e84879b9709143e1f593f00000018161032085015109610320840152505050565b60007f30644e72e131a029b85045b68181585d2833e84879b9709143e1f593f0000001807f30644e72e131a029b85045b68181585d2833e84879b9709143e1f593f000000160008601356103208601510983030106905080610180830152505050565b6101808101517f30644e72e131a029b85045b68181585d2833e84879b9709143e1f593f00000016102c0830151610320840151097f30644e72e131a029b85045b68181585d2833e84879b9709143e1f593f0000001806102a43560208601510961024435087f30644e72e131a029b85045b68181585d2833e84879b9709143e1f593f00000016040850151820890507f30644e72e131a029b85045b68181585d2833e84879b9709143e1f593f0000001806102c43560208701510961026435087f30644e72e131a029b85045b68181585d2833e84879b9709143e1f593f00000016040860151820890507f30644e72e131a029b85045b68181585d2833e84879b9709143e1f593f0000001604086015161028435087f30644e72e131a029b85045b68181585d2833e84879b9709143e1f593f0000001817f30644e72e131a029b85045b68181585d2833e84879b9709143e1f593f0000001848609097f30644e72e131a029b85045b68181585d2833e84879b9709143e1f593f00000016102e435820990507f30644e72e131a029b85045b68181585d2833e84879b9709143e1f593f00000016000880151820990507f30644e72e131a029b85045b68181585d2833e84879b9709143e1f593f000000180867f30644e72e131a029b85045b68181585d2833e84879b9709143e1f593f0000001030687087f30644e72e131a029b85045b68181585d2833e84879b9709143e1f593f000000180837f30644e72e131a029b85045b68181585d2833e84879b9709143e1f593f0000001030682089050806101a08901525050505050505050565b81518152602082015160208201525050565b818152826020820152505050565b81358152602082013560208201525050565b6040518151815260208201516020820152825160408201526020830151606082015260408260808360066107d05a03fa80610be7576000805260206000f35b50505050565b600060405183815284602082015285604082015260408160608360076107d05a03fa915081610c20576000805260206000f35b825160408201526020830151606082015260408360808360066107d05a03fa915081610c50576000805260206000f35b505050505050565b600060405183815284602082015285604082015260408360608360076107d05a03fa915081610c8b576000805260206000f35b505050505050565b610ca4836020840151845184610c58565b505050565b6101c0810160408201516040516101008101604052610cca60008085610b88565b610d3f7f30644e72e131a029b85045b68181585d2833e84879b9709143e1f593f00000016102643561024435097f03f63abd7064803908511864fef86e216b4c0cf40b12d5634b5dcd7c11d0123e7f1ee9fed57ecb2a797897f8cb9cc91396016b7475935470412f5ad826eee5704186610bed565b610d8e610244357f0c78e45fcb8d1214c15dc91b8528277cf4d0e8cabdc92b771608c7bdfb33d55d7f2d699850ed2aa3b7842407d2787b87dd206a01317ef1f37dd3c3754775e8efc186610bed565b610d9e6102643560008086610bed565b610ded610284357f2c6e13b570cd1ff0afff2d518288ea3c2c355d9d5d5ef529f0c2be9ac6aceb097f1ee9fed57ecb2a797897f8cb9cc91396016b7475935470412f5ad826eee5704186610bed565b60a08401517f30644e72e131a029b85045b68181585d2833e84879b9709143e1f593f0000001837f30644e72e131a029b85045b68181585d2833e84879b9709143e1f593f0000001836102443508087f30644e72e131a029b85045b68181585d2833e84879b9709143e1f593f0000001847f30644e72e131a029b85045b68181585d2833e84879b9709143e1f593f000000180600286096102643508087f30644e72e131a029b85045b68181585d2833e84879b9709143e1f593f0000001857f30644e72e131a029b85045b68181585d2833e84879b9709143e1f593f000000180600387096102843508087f30644e72e131a029b85045b68181585d2833e84879b9709143e1f593f000000160008901517f30644e72e131a029b85045b68181585d2833e84879b9709143e1f593f0000001837f30644e72e131a029b85045b68181585d2833e84879b9709143e1f593f000000186880909097f30644e72e131a029b85045b68181585d2833e84879b9709143e1f593f00000016102c08a01516103208b015109610f8260c460c08901610b96565b610fdb7f30644e72e131a029b85045b68181585d2833e84879b9709143e1f593f00000016101608c01517f30644e72e131a029b85045b68181585d2833e84879b9709143e1f593f00000018486080860c0890189610c93565b7f30644e72e131a029b85045b68181585d2833e84879b9709143e1f593f0000001887f30644e72e131a029b85045b68181585d2833e84879b9709143e1f593f0000001806102a43560208f01510961024435080894507f30644e72e131a029b85045b68181585d2833e84879b9709143e1f593f0000001887f30644e72e131a029b85045b68181585d2833e84879b9709143e1f593f0000001806102c43560208f01510961026435080893507f30644e72e131a029b85045b68181585d2833e84879b9709143e1f593f00000016102e4357f30644e72e131a029b85045b68181585d2833e84879b9709143e1f593f000000160208d015160008e0151090992506111707f30644e72e131a029b85045b68181585d2833e84879b9709143e1f593f0000001847f30644e72e131a029b85045b68181585d2833e84879b9709143e1f593f0000001878909097f295c958d8da6376a5af7b55e5f8f2cf898be5b8b093e2357604cb3c590a7a3b97f07f525ded40357e87fb0699970d1659cb8910a1834fd1d0faf39a709a028269560408b01610c58565b61117f61010460808901610b96565b61119b60808b0151602061014401356101443560808b01610bed565b7f30644e72e131a029b85045b68181585d2833e84879b9709143e1f593f000000160808b015160808c0151096111df81602061018401356101843560808c01610bed565b6111fb6102e08c015160a08a015160808b015160808c01610c58565b7f30644e72e131a029b85045b68181585d97816a916871ca8d3c208c16d87cfd47602060408a0101517f30644e72e131a029b85045b68181585d97816a916871ca8d3c208c16d87cfd470306602060408a0101527f30644e72e131a029b85045b68181585d97816a916871ca8d3c208c16d87cfd4760a08901517f30644e72e131a029b85045b68181585d97816a916871ca8d3c208c16d87cfd47030660a08901526112a7888b610ba8565b6112b4604089018b610ba8565b6112c1608089018b610ba8565b5050505050505050505050565b61020081016112e16101c0830182610b76565b6112f860c083015160206004013560043584610bed565b61130f60e083015160206044013560443584610bed565b61132761010083015160206084013560843584610bed565b6113786101208301517f14eeed896ec627693cb85e37244f15773af23b42b75873cdf3c1f61866643c137f0e563f3759167d85ebfb9c999f4231427c4dc81acd9caf20d862a0eb7be6461a84610bed565b6113c96101408301517f13daf969003014b56da8486540645356478273f2e921395447506c88d7d295447f139b7f3d2a98c15f8a92e6f87a4e25e2effaaaa2251ce92e53c9269edc954d8684610bed565b5050565b7f30644e72e131a029b85045b68181585d2833e84879b9709143e1f593f00000016101a08201517f30644e72e131a029b85045b68181585d2833e84879b9709143e1f593f000000103067f30644e72e131a029b85045b68181585d2833e84879b9709143e1f593f00000018060c08401516102443509820890507f30644e72e131a029b85045b68181585d2833e84879b9709143e1f593f00000018060e08401516102643509820890507f30644e72e131a029b85045b68181585d2833e84879b9709143e1f593f0000001806101008401516102843509820890507f30644e72e131a029b85045b68181585d2833e84879b9709143e1f593f0000001806101208401516102a43509820890507f30644e72e131a029b85045b68181585d2833e84879b9709143e1f593f0000001806101408401516102c43509820890507f30644e72e131a029b85045b68181585d2833e84879b9709143e1f593f0000001806101608401516102e435098208905061154d81600260016102408601610c58565b5050565b6000604051610240810160405261018081016101c0820161020083016115796101c484610b96565b61158561020483610b96565b6115956101608701518386610c93565b61159f8385610ba8565b7f30644e72e131a029b85045b68181585d97816a916871ca8d3c208c16d87cfd4760208501517f30644e72e131a029b85045b68181585d97816a916871ca8d3c208c16d87cfd47030660208501527f228f5a72c1ba65a5768c4d586f2ea0d42ddbea413037173d2da5861e7d259dd660408501527f19a199df22a31e64c2a48a1cd0f0c0222237c5a5842e316d2e956623f62ad60f60608501527f11600b6358a8d7922377ad44766daf5cd6ee25aeb69e8e0704f2b19061e2101060808501527f0dddbf6229fa66fa896fa8b6d8f8695360a642b307eb29d087673ffd194395e860a085015261169760608701518460c08701610c93565b7f30644e72e131a029b85045b68181585d2833e84879b9709143e1f593f00000016060870151610160880151097f30644e72e131a029b85045b68181585d2833e84879b9709143e1f593f00000017f2b337de1c8c14f22ec9b9e2f96afef3652627366f8170a0a948dad4ac1bd5e8082099050611715818484610c93565b6117228260c08701610ba8565b611733610200880160c08701610ba8565b7f30644e72e131a029b85045b68181585d97816a916871ca8d3c208c16d87cfd476020610240018801517f30644e72e131a029b85045b68181585d97816a916871ca8d3c208c16d87cfd47030660206102400188015261179a610240880160c08701610ba8565b7f198e9393920d483a7260bfb731fb5d25f1aa493335a9e71297e485b7aef312c26101008601527f1800deef121f1e76426a00665e5c4479674322d4f75edadd46debd5cd992f6ed6101208601527f090689d0585ff075ec9e99ad690c3395bc4b313370b38ef355acdadcd122975b6101408601527f12c85ea5db8c6deb4aab71808dcb408fe3d1e7690c43d37b4ce6cc0166fa7daa6101608601526020856101808760086107d05a03fa855181169650505050505050919050565b6040516103408101604052611869610206565b6118738382610250565b61187c8161081d565b61188683826108c1565b61188f81610924565b61189881610ca9565b6118a1816112ce565b6118aa816113cd565b6118b381611551565b61034082036040528060005260206000f35b600080fd5b600080fd5b6000819050826020601802820111156118eb576118ea6118ca565b5b92915050565b60008190508260206001028201111561190d5761190c6118ca565b5b92915050565b600080610320838503121561192b5761192a6118c5565b5b6000611939858286016118cf565b92505061030061194b858286016118f1565b9150509250929050565b60008115159050919050565b61196a81611955565b82525050565b60006020820190506119856000830184611961565b9291505056fea26469706673582212200e73ebaacdabfbf9e8694b71a3e2a8bce3e81430c9f107ec9b0dc704345f867064736f6c634300081c0033","opcodes":"PUSH1 0x80 PUSH1 0x40 MSTORE CALLVALUE DUP1 ISZERO PUSH1 0xF JUMPI PUSH1 0x0 DUP1 REVERT JUMPDEST POP PUSH2 0x19C1 DUP1 PUSH2 0x1F PUSH1 0x0 CODECOPY PUSH1 0x0 RETURN INVALID PUSH1 0x80 PUSH1 0x40 MSTORE CALLVALUE DUP1 ISZERO PUSH2 0x10 JUMPI PUSH1 0x0 DUP1 REVERT JUMPDEST POP PUSH1 0x4 CALLDATASIZE LT PUSH2 0x2B JUMPI PUSH1 0x0 CALLDATALOAD PUSH1 0xE0 SHR DUP1 PUSH4 0xFF7240A7 EQ PUSH2 0x30 JUMPI JUMPDEST PUSH1 0x0 DUP1 REVERT JUMPDEST PUSH2 0x4A PUSH1 0x4 DUP1 CALLDATASIZE SUB DUP2 ADD SWAP1 PUSH2 0x45 SWAP2 SWAP1 PUSH2 0x1913 JUMP JUMPDEST PUSH2 0x60 JUMP JUMPDEST PUSH1 0x40 MLOAD PUSH2 0x57 SWAP2 SWAP1 PUSH2 0x1970 JUMP JUMPDEST PUSH1 0x40 MLOAD DUP1 SWAP2 SUB SWAP1 RETURN JUMPDEST PUSH1 0x0 PUSH2 0x1856 JUMP JUMPDEST PUSH1 0x0 DUP1 PUSH1 0x1 DUP5 DUP5 PUSH1 0x0 DUP1 JUMPDEST DUP3 ISZERO PUSH2 0x9C JUMPI DUP3 DUP5 SDIV SWAP2 POP DUP5 DUP3 MUL DUP7 SUB SWAP1 POP DUP5 SWAP6 POP DUP1 SWAP5 POP DUP3 DUP3 MUL DUP5 SUB SWAP1 POP DUP3 SWAP4 POP DUP1 SWAP3 POP PUSH2 0x72 JUMP JUMPDEST PUSH1 0x1 DUP5 GT ISZERO PUSH2 0xAA JUMPI PUSH1 0x0 DUP1 REVERT JUMPDEST PUSH1 0x0 DUP7 SLT ISZERO PUSH2 0xB9 JUMPI DUP9 DUP7 ADD SWAP6 POP JUMPDEST DUP6 SWAP7 POP POP POP POP POP POP POP SWAP3 SWAP2 POP POP JUMP JUMPDEST PUSH1 0x40 MLOAD DUP2 PUSH1 0x20 DUP5 MUL DUP4 ADD DUP2 MLOAD PUSH1 0x20 DUP4 ADD SWAP3 POP PUSH1 0x0 JUMPDEST DUP3 DUP5 LT ISZERO PUSH2 0x120 JUMPI DUP2 DUP6 MSTORE PUSH32 0x30644E72E131A029B85045B68181585D2833E84879B9709143E1F593F0000001 DUP5 MLOAD DUP4 MULMOD SWAP2 POP PUSH1 0x20 DUP6 ADD SWAP5 POP PUSH1 0x20 DUP5 ADD SWAP4 POP PUSH2 0xDD JUMP JUMPDEST PUSH2 0x14A PUSH32 0x30644E72E131A029B85045B68181585D2833E84879B9709143E1F593F0000001 DUP4 PUSH2 0x67 JUMP JUMPDEST SWAP2 POP PUSH1 0x20 DUP6 SUB SWAP5 POP PUSH1 0x20 DUP5 SUB SWAP4 POP DUP6 SWAP3 POP JUMPDEST DUP3 DUP5 GT ISZERO PUSH2 0x1C6 JUMPI PUSH32 0x30644E72E131A029B85045B68181585D2833E84879B9709143E1F593F0000001 DUP6 MLOAD DUP4 MULMOD SWAP1 POP PUSH32 0x30644E72E131A029B85045B68181585D2833E84879B9709143E1F593F0000001 DUP5 MLOAD DUP4 MULMOD SWAP2 POP DUP1 DUP5 MSTORE PUSH1 0x20 DUP6 SUB SWAP5 POP PUSH1 0x20 DUP5 SUB SWAP4 POP PUSH2 0x15C JUMP JUMPDEST DUP2 DUP5 MSTORE POP POP POP POP POP POP POP JUMP JUMPDEST PUSH32 0x30644E72E131A029B85045B68181585D2833E84879B9709143E1F593F0000001 DUP2 LT PUSH2 0x203 JUMPI PUSH1 0x0 DUP1 MSTORE PUSH1 0x20 PUSH1 0x0 RETURN JUMPDEST POP JUMP JUMPDEST PUSH2 0x212 PUSH2 0x244 CALLDATALOAD PUSH2 0x1D2 JUMP JUMPDEST PUSH2 0x21E PUSH2 0x264 CALLDATALOAD PUSH2 0x1D2 JUMP JUMPDEST PUSH2 0x22A PUSH2 0x284 CALLDATALOAD PUSH2 0x1D2 JUMP JUMPDEST PUSH2 0x236 PUSH2 0x2A4 CALLDATALOAD PUSH2 0x1D2 JUMP JUMPDEST PUSH2 0x242 PUSH2 0x2C4 CALLDATALOAD PUSH2 0x1D2 JUMP JUMPDEST PUSH2 0x24E PUSH2 0x2E4 CALLDATALOAD PUSH2 0x1D2 JUMP JUMPDEST JUMP JUMPDEST PUSH1 0x0 DUP1 PUSH1 0x40 MLOAD PUSH32 0x1EE9FED57ECB2A797897F8CB9CC91396016B7475935470412F5AD826EEE57041 DUP2 MSTORE PUSH32 0x3F63ABD7064803908511864FEF86E216B4C0CF40B12D5634B5DCD7C11D0123E PUSH1 0x20 DUP3 ADD MSTORE PUSH32 0x2D699850ED2AA3B7842407D2787B87DD206A01317EF1F37DD3C3754775E8EFC1 PUSH1 0x40 DUP3 ADD MSTORE PUSH32 0xC78E45FCB8D1214C15DC91B8528277CF4D0E8CABDC92B771608C7BDFB33D55D PUSH1 0x60 DUP3 ADD MSTORE PUSH1 0x0 PUSH1 0x80 DUP3 ADD MSTORE PUSH1 0x0 PUSH1 0xA0 DUP3 ADD MSTORE PUSH32 0x1EE9FED57ECB2A797897F8CB9CC91396016B7475935470412F5AD826EEE57041 PUSH1 0xC0 DUP3 ADD MSTORE PUSH32 0x2C6E13B570CD1FF0AFFF2D518288EA3C2C355D9D5D5EF529F0C2BE9AC6ACEB09 PUSH1 0xE0 DUP3 ADD MSTORE PUSH1 0x0 PUSH2 0x100 DUP3 ADD MSTORE PUSH1 0x0 PUSH2 0x120 DUP3 ADD MSTORE PUSH32 0xE563F3759167D85EBFB9C999F4231427C4DC81ACD9CAF20D862A0EB7BE6461A PUSH2 0x140 DUP3 ADD MSTORE PUSH32 0x14EEED896EC627693CB85E37244F15773AF23B42B75873CDF3C1F61866643C13 PUSH2 0x160 DUP3 ADD MSTORE PUSH32 0x139B7F3D2A98C15F8A92E6F87A4E25E2EFFAAAA2251CE92E53C9269EDC954D86 PUSH2 0x180 DUP3 ADD MSTORE PUSH32 0x13DAF969003014B56DA8486540645356478273F2E921395447506C88D7D29544 PUSH2 0x1A0 DUP3 ADD MSTORE PUSH32 0x7F525DED40357E87FB0699970D1659CB8910A1834FD1D0FAF39A709A0282695 PUSH2 0x1C0 DUP3 ADD MSTORE PUSH32 0x295C958D8DA6376A5AF7B55E5F8F2CF898BE5B8B093E2357604CB3C590A7A3B9 PUSH2 0x1E0 DUP3 ADD MSTORE PUSH1 0x0 DUP6 ADD CALLDATALOAD PUSH2 0x200 DUP3 ADD MSTORE PUSH1 0x4 CALLDATALOAD PUSH2 0x220 DUP3 ADD MSTORE PUSH1 0x20 PUSH1 0x4 ADD CALLDATALOAD PUSH2 0x240 DUP3 ADD MSTORE PUSH1 0x44 CALLDATALOAD PUSH2 0x260 DUP3 ADD MSTORE PUSH1 0x20 PUSH1 0x44 ADD CALLDATALOAD PUSH2 0x280 DUP3 ADD MSTORE PUSH1 0x84 CALLDATALOAD PUSH2 0x2A0 DUP3 ADD MSTORE PUSH1 0x20 PUSH1 0x84 ADD CALLDATALOAD PUSH2 0x2C0 DUP3 ADD MSTORE PUSH32 0x30644E72E131A029B85045B68181585D2833E84879B9709143E1F593F0000001 PUSH2 0x2E0 DUP3 KECCAK256 MOD SWAP3 POP DUP3 PUSH1 0x20 DUP6 ADD MSTORE PUSH32 0x30644E72E131A029B85045B68181585D2833E84879B9709143E1F593F0000001 PUSH1 0x20 DUP1 DUP7 ADD KECCAK256 MOD PUSH1 0x40 DUP6 ADD MSTORE PUSH1 0x20 DUP5 ADD MLOAD DUP2 MSTORE PUSH1 0x40 DUP5 ADD MLOAD PUSH1 0x20 DUP3 ADD MSTORE PUSH1 0xC4 CALLDATALOAD PUSH1 0x40 DUP3 ADD MSTORE PUSH1 0x20 PUSH1 0xC4 ADD CALLDATALOAD PUSH1 0x60 DUP3 ADD MSTORE PUSH32 0x30644E72E131A029B85045B68181585D2833E84879B9709143E1F593F0000001 PUSH1 0x80 DUP3 KECCAK256 MOD SWAP2 POP DUP2 PUSH1 0x0 DUP6 ADD MSTORE PUSH32 0x30644E72E131A029B85045B68181585D2833E84879B9709143E1F593F0000001 DUP3 DUP4 MULMOD PUSH2 0x2C0 DUP6 ADD MSTORE DUP2 DUP2 MSTORE PUSH2 0x104 CALLDATALOAD PUSH1 0x20 DUP3 ADD MSTORE PUSH1 0x20 PUSH2 0x104 ADD CALLDATALOAD PUSH1 0x40 DUP3 ADD MSTORE PUSH2 0x144 CALLDATALOAD PUSH1 0x60 DUP3 ADD MSTORE PUSH1 0x20 PUSH2 0x144 ADD CALLDATALOAD PUSH1 0x80 DUP3 ADD MSTORE PUSH2 0x184 CALLDATALOAD PUSH1 0xA0 DUP3 ADD MSTORE PUSH1 0x20 PUSH2 0x184 ADD CALLDATALOAD PUSH1 0xC0 DUP3 ADD MSTORE PUSH32 0x30644E72E131A029B85045B68181585D2833E84879B9709143E1F593F0000001 PUSH1 0xE0 DUP3 KECCAK256 MOD SWAP2 POP DUP2 PUSH1 0x60 DUP6 ADD MSTORE DUP2 DUP2 MSTORE PUSH2 0x244 CALLDATALOAD PUSH1 0x20 DUP3 ADD MSTORE PUSH2 0x264 CALLDATALOAD PUSH1 0x40 DUP3 ADD MSTORE PUSH2 0x284 CALLDATALOAD PUSH1 0x60 DUP3 ADD MSTORE PUSH2 0x2A4 CALLDATALOAD PUSH1 0x80 DUP3 ADD MSTORE PUSH2 0x2C4 CALLDATALOAD PUSH1 0xA0 DUP3 ADD MSTORE PUSH2 0x2E4 CALLDATALOAD PUSH1 0xC0 DUP3 ADD MSTORE PUSH32 0x30644E72E131A029B85045B68181585D2833E84879B9709143E1F593F0000001 PUSH1 0xE0 DUP3 KECCAK256 MOD DUP1 PUSH1 0xC0 DUP7 ADD MSTORE PUSH32 0x30644E72E131A029B85045B68181585D2833E84879B9709143E1F593F0000001 DUP4 DUP6 MULMOD PUSH1 0xA0 DUP7 ADD MSTORE PUSH32 0x30644E72E131A029B85045B68181585D2833E84879B9709143E1F593F0000001 DUP4 DUP5 MULMOD SWAP3 POP PUSH32 0x30644E72E131A029B85045B68181585D2833E84879B9709143E1F593F0000001 DUP4 DUP5 MULMOD SWAP3 POP PUSH32 0x30644E72E131A029B85045B68181585D2833E84879B9709143E1F593F0000001 DUP4 DUP5 MULMOD SWAP3 POP DUP3 PUSH1 0x80 DUP7 ADD MSTORE PUSH32 0x30644E72E131A029B85045B68181585D2833E84879B9709143E1F593F0000001 DUP1 PUSH1 0x1 DUP6 SUB ADD MOD SWAP3 POP DUP3 PUSH2 0x2E0 DUP7 ADD MSTORE DUP3 PUSH2 0x300 DUP7 ADD MSTORE PUSH32 0x30644E72E131A029B85045B68181585D2833E84879B9709143E1F593F0000001 DUP2 DUP3 MULMOD SWAP3 POP DUP3 PUSH1 0xE0 DUP7 ADD MSTORE PUSH32 0x30644E72E131A029B85045B68181585D2833E84879B9709143E1F593F0000001 DUP2 DUP5 MULMOD SWAP3 POP DUP3 PUSH2 0x100 DUP7 ADD MSTORE PUSH32 0x30644E72E131A029B85045B68181585D2833E84879B9709143E1F593F0000001 DUP2 DUP5 MULMOD SWAP3 POP DUP3 PUSH2 0x120 DUP7 ADD MSTORE PUSH32 0x30644E72E131A029B85045B68181585D2833E84879B9709143E1F593F0000001 DUP2 DUP5 MULMOD SWAP3 POP DUP3 PUSH2 0x140 DUP7 ADD MSTORE PUSH2 0x1C4 CALLDATALOAD DUP3 MSTORE PUSH1 0x20 PUSH2 0x1C4 ADD CALLDATALOAD PUSH1 0x20 DUP4 ADD MSTORE PUSH2 0x204 CALLDATALOAD PUSH1 0x40 DUP4 ADD MSTORE PUSH1 0x20 PUSH2 0x204 ADD CALLDATALOAD PUSH1 0x60 DUP4 ADD MSTORE PUSH32 0x30644E72E131A029B85045B68181585D2833E84879B9709143E1F593F0000001 PUSH1 0x80 DUP4 KECCAK256 MOD PUSH2 0x160 DUP7 ADD MSTORE POP POP POP POP POP POP JUMP JUMPDEST PUSH1 0x1 PUSH32 0x30644E72E131A029B85045B68181585D2833E84879B9709143E1F593F0000001 DUP1 PUSH32 0x30644E72E131A029B85045B68181585D2833E84879B9709143E1F593F0000001 DUP4 PUSH1 0x60 DUP7 ADD MLOAD SUB ADD MOD PUSH1 0x8 MULMOD PUSH2 0x320 DUP4 ADD MSTORE PUSH2 0x883 PUSH1 0x2 PUSH2 0x300 DUP5 ADD PUSH2 0xC8 JUMP JUMPDEST PUSH2 0x2E0 DUP3 ADD MLOAD PUSH1 0x1 SWAP2 POP PUSH32 0x30644E72E131A029B85045B68181585D2833E84879B9709143E1F593F0000001 DUP2 PUSH2 0x320 DUP6 ADD MLOAD MULMOD PUSH2 0x320 DUP5 ADD MSTORE POP POP POP JUMP JUMPDEST PUSH1 0x0 PUSH32 0x30644E72E131A029B85045B68181585D2833E84879B9709143E1F593F0000001 DUP1 PUSH32 0x30644E72E131A029B85045B68181585D2833E84879B9709143E1F593F0000001 PUSH1 0x0 DUP7 ADD CALLDATALOAD PUSH2 0x320 DUP7 ADD MLOAD MULMOD DUP4 SUB ADD MOD SWAP1 POP DUP1 PUSH2 0x180 DUP4 ADD MSTORE POP POP POP JUMP JUMPDEST PUSH2 0x180 DUP2 ADD MLOAD PUSH32 0x30644E72E131A029B85045B68181585D2833E84879B9709143E1F593F0000001 PUSH2 0x2C0 DUP4 ADD MLOAD PUSH2 0x320 DUP5 ADD MLOAD MULMOD PUSH32 0x30644E72E131A029B85045B68181585D2833E84879B9709143E1F593F0000001 DUP1 PUSH2 0x2A4 CALLDATALOAD PUSH1 0x20 DUP7 ADD MLOAD MULMOD PUSH2 0x244 CALLDATALOAD ADDMOD PUSH32 0x30644E72E131A029B85045B68181585D2833E84879B9709143E1F593F0000001 PUSH1 0x40 DUP6 ADD MLOAD DUP3 ADDMOD SWAP1 POP PUSH32 0x30644E72E131A029B85045B68181585D2833E84879B9709143E1F593F0000001 DUP1 PUSH2 0x2C4 CALLDATALOAD PUSH1 0x20 DUP8 ADD MLOAD MULMOD PUSH2 0x264 CALLDATALOAD ADDMOD PUSH32 0x30644E72E131A029B85045B68181585D2833E84879B9709143E1F593F0000001 PUSH1 0x40 DUP7 ADD MLOAD DUP3 ADDMOD SWAP1 POP PUSH32 0x30644E72E131A029B85045B68181585D2833E84879B9709143E1F593F0000001 PUSH1 0x40 DUP7 ADD MLOAD PUSH2 0x284 CALLDATALOAD ADDMOD PUSH32 0x30644E72E131A029B85045B68181585D2833E84879B9709143E1F593F0000001 DUP2 PUSH32 0x30644E72E131A029B85045B68181585D2833E84879B9709143E1F593F0000001 DUP5 DUP7 MULMOD MULMOD PUSH32 0x30644E72E131A029B85045B68181585D2833E84879B9709143E1F593F0000001 PUSH2 0x2E4 CALLDATALOAD DUP3 MULMOD SWAP1 POP PUSH32 0x30644E72E131A029B85045B68181585D2833E84879B9709143E1F593F0000001 PUSH1 0x0 DUP9 ADD MLOAD DUP3 MULMOD SWAP1 POP PUSH32 0x30644E72E131A029B85045B68181585D2833E84879B9709143E1F593F0000001 DUP1 DUP7 PUSH32 0x30644E72E131A029B85045B68181585D2833E84879B9709143E1F593F0000001 SUB MOD DUP8 ADDMOD PUSH32 0x30644E72E131A029B85045B68181585D2833E84879B9709143E1F593F0000001 DUP1 DUP4 PUSH32 0x30644E72E131A029B85045B68181585D2833E84879B9709143E1F593F0000001 SUB MOD DUP3 ADDMOD SWAP1 POP DUP1 PUSH2 0x1A0 DUP10 ADD MSTORE POP POP POP POP POP POP POP POP JUMP JUMPDEST DUP2 MLOAD DUP2 MSTORE PUSH1 0x20 DUP3 ADD MLOAD PUSH1 0x20 DUP3 ADD MSTORE POP POP JUMP JUMPDEST DUP2 DUP2 MSTORE DUP3 PUSH1 0x20 DUP3 ADD MSTORE POP POP POP JUMP JUMPDEST DUP2 CALLDATALOAD DUP2 MSTORE PUSH1 0x20 DUP3 ADD CALLDATALOAD PUSH1 0x20 DUP3 ADD MSTORE POP POP JUMP JUMPDEST PUSH1 0x40 MLOAD DUP2 MLOAD DUP2 MSTORE PUSH1 0x20 DUP3 ADD MLOAD PUSH1 0x20 DUP3 ADD MSTORE DUP3 MLOAD PUSH1 0x40 DUP3 ADD MSTORE PUSH1 0x20 DUP4 ADD MLOAD PUSH1 0x60 DUP3 ADD MSTORE PUSH1 0x40 DUP3 PUSH1 0x80 DUP4 PUSH1 0x6 PUSH2 0x7D0 GAS SUB STATICCALL DUP1 PUSH2 0xBE7 JUMPI PUSH1 0x0 DUP1 MSTORE PUSH1 0x20 PUSH1 0x0 RETURN JUMPDEST POP POP POP POP JUMP JUMPDEST PUSH1 0x0 PUSH1 0x40 MLOAD DUP4 DUP2 MSTORE DUP5 PUSH1 0x20 DUP3 ADD MSTORE DUP6 PUSH1 0x40 DUP3 ADD MSTORE PUSH1 0x40 DUP2 PUSH1 0x60 DUP4 PUSH1 0x7 PUSH2 0x7D0 GAS SUB STATICCALL SWAP2 POP DUP2 PUSH2 0xC20 JUMPI PUSH1 0x0 DUP1 MSTORE PUSH1 0x20 PUSH1 0x0 RETURN JUMPDEST DUP3 MLOAD PUSH1 0x40 DUP3 ADD MSTORE PUSH1 0x20 DUP4 ADD MLOAD PUSH1 0x60 DUP3 ADD MSTORE PUSH1 0x40 DUP4 PUSH1 0x80 DUP4 PUSH1 0x6 PUSH2 0x7D0 GAS SUB STATICCALL SWAP2 POP DUP2 PUSH2 0xC50 JUMPI PUSH1 0x0 DUP1 MSTORE PUSH1 0x20 PUSH1 0x0 RETURN JUMPDEST POP POP POP POP POP POP JUMP JUMPDEST PUSH1 0x0 PUSH1 0x40 MLOAD DUP4 DUP2 MSTORE DUP5 PUSH1 0x20 DUP3 ADD MSTORE DUP6 PUSH1 0x40 DUP3 ADD MSTORE PUSH1 0x40 DUP4 PUSH1 0x60 DUP4 PUSH1 0x7 PUSH2 0x7D0 GAS SUB STATICCALL SWAP2 POP DUP2 PUSH2 0xC8B JUMPI PUSH1 0x0 DUP1 MSTORE PUSH1 0x20 PUSH1 0x0 RETURN JUMPDEST POP POP POP POP POP POP JUMP JUMPDEST PUSH2 0xCA4 DUP4 PUSH1 0x20 DUP5 ADD MLOAD DUP5 MLOAD DUP5 PUSH2 0xC58 JUMP JUMPDEST POP POP POP JUMP JUMPDEST PUSH2 0x1C0 DUP2 ADD PUSH1 0x40 DUP3 ADD MLOAD PUSH1 0x40 MLOAD PUSH2 0x100 DUP2 ADD PUSH1 0x40 MSTORE PUSH2 0xCCA PUSH1 0x0 DUP1 DUP6 PUSH2 0xB88 JUMP JUMPDEST PUSH2 0xD3F PUSH32 0x30644E72E131A029B85045B68181585D2833E84879B9709143E1F593F0000001 PUSH2 0x264 CALLDATALOAD PUSH2 0x244 CALLDATALOAD MULMOD PUSH32 0x3F63ABD7064803908511864FEF86E216B4C0CF40B12D5634B5DCD7C11D0123E PUSH32 0x1EE9FED57ECB2A797897F8CB9CC91396016B7475935470412F5AD826EEE57041 DUP7 PUSH2 0xBED JUMP JUMPDEST PUSH2 0xD8E PUSH2 0x244 CALLDATALOAD PUSH32 0xC78E45FCB8D1214C15DC91B8528277CF4D0E8CABDC92B771608C7BDFB33D55D PUSH32 0x2D699850ED2AA3B7842407D2787B87DD206A01317EF1F37DD3C3754775E8EFC1 DUP7 PUSH2 0xBED JUMP JUMPDEST PUSH2 0xD9E PUSH2 0x264 CALLDATALOAD PUSH1 0x0 DUP1 DUP7 PUSH2 0xBED JUMP JUMPDEST PUSH2 0xDED PUSH2 0x284 CALLDATALOAD PUSH32 0x2C6E13B570CD1FF0AFFF2D518288EA3C2C355D9D5D5EF529F0C2BE9AC6ACEB09 PUSH32 0x1EE9FED57ECB2A797897F8CB9CC91396016B7475935470412F5AD826EEE57041 DUP7 PUSH2 0xBED JUMP JUMPDEST PUSH1 0xA0 DUP5 ADD MLOAD PUSH32 0x30644E72E131A029B85045B68181585D2833E84879B9709143E1F593F0000001 DUP4 PUSH32 0x30644E72E131A029B85045B68181585D2833E84879B9709143E1F593F0000001 DUP4 PUSH2 0x244 CALLDATALOAD ADDMOD ADDMOD PUSH32 0x30644E72E131A029B85045B68181585D2833E84879B9709143E1F593F0000001 DUP5 PUSH32 0x30644E72E131A029B85045B68181585D2833E84879B9709143E1F593F0000001 DUP1 PUSH1 0x2 DUP7 MULMOD PUSH2 0x264 CALLDATALOAD ADDMOD ADDMOD PUSH32 0x30644E72E131A029B85045B68181585D2833E84879B9709143E1F593F0000001 DUP6 PUSH32 0x30644E72E131A029B85045B68181585D2833E84879B9709143E1F593F0000001 DUP1 PUSH1 0x3 DUP8 MULMOD PUSH2 0x284 CALLDATALOAD ADDMOD ADDMOD PUSH32 0x30644E72E131A029B85045B68181585D2833E84879B9709143E1F593F0000001 PUSH1 0x0 DUP10 ADD MLOAD PUSH32 0x30644E72E131A029B85045B68181585D2833E84879B9709143E1F593F0000001 DUP4 PUSH32 0x30644E72E131A029B85045B68181585D2833E84879B9709143E1F593F0000001 DUP7 DUP9 MULMOD MULMOD MULMOD PUSH32 0x30644E72E131A029B85045B68181585D2833E84879B9709143E1F593F0000001 PUSH2 0x2C0 DUP11 ADD MLOAD PUSH2 0x320 DUP12 ADD MLOAD MULMOD PUSH2 0xF82 PUSH1 0xC4 PUSH1 0xC0 DUP10 ADD PUSH2 0xB96 JUMP JUMPDEST PUSH2 0xFDB PUSH32 0x30644E72E131A029B85045B68181585D2833E84879B9709143E1F593F0000001 PUSH2 0x160 DUP13 ADD MLOAD PUSH32 0x30644E72E131A029B85045B68181585D2833E84879B9709143E1F593F0000001 DUP5 DUP7 ADDMOD ADDMOD PUSH1 0xC0 DUP10 ADD DUP10 PUSH2 0xC93 JUMP JUMPDEST PUSH32 0x30644E72E131A029B85045B68181585D2833E84879B9709143E1F593F0000001 DUP9 PUSH32 0x30644E72E131A029B85045B68181585D2833E84879B9709143E1F593F0000001 DUP1 PUSH2 0x2A4 CALLDATALOAD PUSH1 0x20 DUP16 ADD MLOAD MULMOD PUSH2 0x244 CALLDATALOAD ADDMOD ADDMOD SWAP5 POP PUSH32 0x30644E72E131A029B85045B68181585D2833E84879B9709143E1F593F0000001 DUP9 PUSH32 0x30644E72E131A029B85045B68181585D2833E84879B9709143E1F593F0000001 DUP1 PUSH2 0x2C4 CALLDATALOAD PUSH1 0x20 DUP16 ADD MLOAD MULMOD PUSH2 0x264 CALLDATALOAD ADDMOD ADDMOD SWAP4 POP PUSH32 0x30644E72E131A029B85045B68181585D2833E84879B9709143E1F593F0000001 PUSH2 0x2E4 CALLDATALOAD PUSH32 0x30644E72E131A029B85045B68181585D2833E84879B9709143E1F593F0000001 PUSH1 0x20 DUP14 ADD MLOAD PUSH1 0x0 DUP15 ADD MLOAD MULMOD MULMOD SWAP3 POP PUSH2 0x1170 PUSH32 0x30644E72E131A029B85045B68181585D2833E84879B9709143E1F593F0000001 DUP5 PUSH32 0x30644E72E131A029B85045B68181585D2833E84879B9709143E1F593F0000001 DUP8 DUP10 MULMOD MULMOD PUSH32 0x295C958D8DA6376A5AF7B55E5F8F2CF898BE5B8B093E2357604CB3C590A7A3B9 PUSH32 0x7F525DED40357E87FB0699970D1659CB8910A1834FD1D0FAF39A709A0282695 PUSH1 0x40 DUP12 ADD PUSH2 0xC58 JUMP JUMPDEST PUSH2 0x117F PUSH2 0x104 PUSH1 0x80 DUP10 ADD PUSH2 0xB96 JUMP JUMPDEST PUSH2 0x119B PUSH1 0x80 DUP12 ADD MLOAD PUSH1 0x20 PUSH2 0x144 ADD CALLDATALOAD PUSH2 0x144 CALLDATALOAD PUSH1 0x80 DUP12 ADD PUSH2 0xBED JUMP JUMPDEST PUSH32 0x30644E72E131A029B85045B68181585D2833E84879B9709143E1F593F0000001 PUSH1 0x80 DUP12 ADD MLOAD PUSH1 0x80 DUP13 ADD MLOAD MULMOD PUSH2 0x11DF DUP2 PUSH1 0x20 PUSH2 0x184 ADD CALLDATALOAD PUSH2 0x184 CALLDATALOAD PUSH1 0x80 DUP13 ADD PUSH2 0xBED JUMP JUMPDEST PUSH2 0x11FB PUSH2 0x2E0 DUP13 ADD MLOAD PUSH1 0xA0 DUP11 ADD MLOAD PUSH1 0x80 DUP12 ADD MLOAD PUSH1 0x80 DUP13 ADD PUSH2 0xC58 JUMP JUMPDEST PUSH32 0x30644E72E131A029B85045B68181585D97816A916871CA8D3C208C16D87CFD47 PUSH1 0x20 PUSH1 0x40 DUP11 ADD ADD MLOAD PUSH32 0x30644E72E131A029B85045B68181585D97816A916871CA8D3C208C16D87CFD47 SUB MOD PUSH1 0x20 PUSH1 0x40 DUP11 ADD ADD MSTORE PUSH32 0x30644E72E131A029B85045B68181585D97816A916871CA8D3C208C16D87CFD47 PUSH1 0xA0 DUP10 ADD MLOAD PUSH32 0x30644E72E131A029B85045B68181585D97816A916871CA8D3C208C16D87CFD47 SUB MOD PUSH1 0xA0 DUP10 ADD MSTORE PUSH2 0x12A7 DUP9 DUP12 PUSH2 0xBA8 JUMP JUMPDEST PUSH2 0x12B4 PUSH1 0x40 DUP10 ADD DUP12 PUSH2 0xBA8 JUMP JUMPDEST PUSH2 0x12C1 PUSH1 0x80 DUP10 ADD DUP12 PUSH2 0xBA8 JUMP JUMPDEST POP POP POP POP POP POP POP POP POP POP POP JUMP JUMPDEST PUSH2 0x200 DUP2 ADD PUSH2 0x12E1 PUSH2 0x1C0 DUP4 ADD DUP3 PUSH2 0xB76 JUMP JUMPDEST PUSH2 0x12F8 PUSH1 0xC0 DUP4 ADD MLOAD PUSH1 0x20 PUSH1 0x4 ADD CALLDATALOAD PUSH1 0x4 CALLDATALOAD DUP5 PUSH2 0xBED JUMP JUMPDEST PUSH2 0x130F PUSH1 0xE0 DUP4 ADD MLOAD PUSH1 0x20 PUSH1 0x44 ADD CALLDATALOAD PUSH1 0x44 CALLDATALOAD DUP5 PUSH2 0xBED JUMP JUMPDEST PUSH2 0x1327 PUSH2 0x100 DUP4 ADD MLOAD PUSH1 0x20 PUSH1 0x84 ADD CALLDATALOAD PUSH1 0x84 CALLDATALOAD DUP5 PUSH2 0xBED JUMP JUMPDEST PUSH2 0x1378 PUSH2 0x120 DUP4 ADD MLOAD PUSH32 0x14EEED896EC627693CB85E37244F15773AF23B42B75873CDF3C1F61866643C13 PUSH32 0xE563F3759167D85EBFB9C999F4231427C4DC81ACD9CAF20D862A0EB7BE6461A DUP5 PUSH2 0xBED JUMP JUMPDEST PUSH2 0x13C9 PUSH2 0x140 DUP4 ADD MLOAD PUSH32 0x13DAF969003014B56DA8486540645356478273F2E921395447506C88D7D29544 PUSH32 0x139B7F3D2A98C15F8A92E6F87A4E25E2EFFAAAA2251CE92E53C9269EDC954D86 DUP5 PUSH2 0xBED JUMP JUMPDEST POP POP JUMP JUMPDEST PUSH32 0x30644E72E131A029B85045B68181585D2833E84879B9709143E1F593F0000001 PUSH2 0x1A0 DUP3 ADD MLOAD PUSH32 0x30644E72E131A029B85045B68181585D2833E84879B9709143E1F593F0000001 SUB MOD PUSH32 0x30644E72E131A029B85045B68181585D2833E84879B9709143E1F593F0000001 DUP1 PUSH1 0xC0 DUP5 ADD MLOAD PUSH2 0x244 CALLDATALOAD MULMOD DUP3 ADDMOD SWAP1 POP PUSH32 0x30644E72E131A029B85045B68181585D2833E84879B9709143E1F593F0000001 DUP1 PUSH1 0xE0 DUP5 ADD MLOAD PUSH2 0x264 CALLDATALOAD MULMOD DUP3 ADDMOD SWAP1 POP PUSH32 0x30644E72E131A029B85045B68181585D2833E84879B9709143E1F593F0000001 DUP1 PUSH2 0x100 DUP5 ADD MLOAD PUSH2 0x284 CALLDATALOAD MULMOD DUP3 ADDMOD SWAP1 POP PUSH32 0x30644E72E131A029B85045B68181585D2833E84879B9709143E1F593F0000001 DUP1 PUSH2 0x120 DUP5 ADD MLOAD PUSH2 0x2A4 CALLDATALOAD MULMOD DUP3 ADDMOD SWAP1 POP PUSH32 0x30644E72E131A029B85045B68181585D2833E84879B9709143E1F593F0000001 DUP1 PUSH2 0x140 DUP5 ADD MLOAD PUSH2 0x2C4 CALLDATALOAD MULMOD DUP3 ADDMOD SWAP1 POP PUSH32 0x30644E72E131A029B85045B68181585D2833E84879B9709143E1F593F0000001 DUP1 PUSH2 0x160 DUP5 ADD MLOAD PUSH2 0x2E4 CALLDATALOAD MULMOD DUP3 ADDMOD SWAP1 POP PUSH2 0x154D DUP2 PUSH1 0x2 PUSH1 0x1 PUSH2 0x240 DUP7 ADD PUSH2 0xC58 JUMP JUMPDEST POP POP JUMP JUMPDEST PUSH1 0x0 PUSH1 0x40 MLOAD PUSH2 0x240 DUP2 ADD PUSH1 0x40 MSTORE PUSH2 0x180 DUP2 ADD PUSH2 0x1C0 DUP3 ADD PUSH2 0x200 DUP4 ADD PUSH2 0x1579 PUSH2 0x1C4 DUP5 PUSH2 0xB96 JUMP JUMPDEST PUSH2 0x1585 PUSH2 0x204 DUP4 PUSH2 0xB96 JUMP JUMPDEST PUSH2 0x1595 PUSH2 0x160 DUP8 ADD MLOAD DUP4 DUP7 PUSH2 0xC93 JUMP JUMPDEST PUSH2 0x159F DUP4 DUP6 PUSH2 0xBA8 JUMP JUMPDEST PUSH32 0x30644E72E131A029B85045B68181585D97816A916871CA8D3C208C16D87CFD47 PUSH1 0x20 DUP6 ADD MLOAD PUSH32 0x30644E72E131A029B85045B68181585D97816A916871CA8D3C208C16D87CFD47 SUB MOD PUSH1 0x20 DUP6 ADD MSTORE PUSH32 0x228F5A72C1BA65A5768C4D586F2EA0D42DDBEA413037173D2DA5861E7D259DD6 PUSH1 0x40 DUP6 ADD MSTORE PUSH32 0x19A199DF22A31E64C2A48A1CD0F0C0222237C5A5842E316D2E956623F62AD60F PUSH1 0x60 DUP6 ADD MSTORE PUSH32 0x11600B6358A8D7922377AD44766DAF5CD6EE25AEB69E8E0704F2B19061E21010 PUSH1 0x80 DUP6 ADD MSTORE PUSH32 0xDDDBF6229FA66FA896FA8B6D8F8695360A642B307EB29D087673FFD194395E8 PUSH1 0xA0 DUP6 ADD MSTORE PUSH2 0x1697 PUSH1 0x60 DUP8 ADD MLOAD DUP5 PUSH1 0xC0 DUP8 ADD PUSH2 0xC93 JUMP JUMPDEST PUSH32 0x30644E72E131A029B85045B68181585D2833E84879B9709143E1F593F0000001 PUSH1 0x60 DUP8 ADD MLOAD PUSH2 0x160 DUP9 ADD MLOAD MULMOD PUSH32 0x30644E72E131A029B85045B68181585D2833E84879B9709143E1F593F0000001 PUSH32 0x2B337DE1C8C14F22EC9B9E2F96AFEF3652627366F8170A0A948DAD4AC1BD5E80 DUP3 MULMOD SWAP1 POP PUSH2 0x1715 DUP2 DUP5 DUP5 PUSH2 0xC93 JUMP JUMPDEST PUSH2 0x1722 DUP3 PUSH1 0xC0 DUP8 ADD PUSH2 0xBA8 JUMP JUMPDEST PUSH2 0x1733 PUSH2 0x200 DUP9 ADD PUSH1 0xC0 DUP8 ADD PUSH2 0xBA8 JUMP JUMPDEST PUSH32 0x30644E72E131A029B85045B68181585D97816A916871CA8D3C208C16D87CFD47 PUSH1 0x20 PUSH2 0x240 ADD DUP9 ADD MLOAD PUSH32 0x30644E72E131A029B85045B68181585D97816A916871CA8D3C208C16D87CFD47 SUB MOD PUSH1 0x20 PUSH2 0x240 ADD DUP9 ADD MSTORE PUSH2 0x179A PUSH2 0x240 DUP9 ADD PUSH1 0xC0 DUP8 ADD PUSH2 0xBA8 JUMP JUMPDEST PUSH32 0x198E9393920D483A7260BFB731FB5D25F1AA493335A9E71297E485B7AEF312C2 PUSH2 0x100 DUP7 ADD MSTORE PUSH32 0x1800DEEF121F1E76426A00665E5C4479674322D4F75EDADD46DEBD5CD992F6ED PUSH2 0x120 DUP7 ADD MSTORE PUSH32 0x90689D0585FF075EC9E99AD690C3395BC4B313370B38EF355ACDADCD122975B PUSH2 0x140 DUP7 ADD MSTORE PUSH32 0x12C85EA5DB8C6DEB4AAB71808DCB408FE3D1E7690C43D37B4CE6CC0166FA7DAA PUSH2 0x160 DUP7 ADD MSTORE PUSH1 0x20 DUP6 PUSH2 0x180 DUP8 PUSH1 0x8 PUSH2 0x7D0 GAS SUB STATICCALL DUP6 MLOAD DUP2 AND SWAP7 POP POP POP POP POP POP POP SWAP2 SWAP1 POP JUMP JUMPDEST PUSH1 0x40 MLOAD PUSH2 0x340 DUP2 ADD PUSH1 0x40 MSTORE PUSH2 0x1869 PUSH2 0x206 JUMP JUMPDEST PUSH2 0x1873 DUP4 DUP3 PUSH2 0x250 JUMP JUMPDEST PUSH2 0x187C DUP2 PUSH2 0x81D JUMP JUMPDEST PUSH2 0x1886 DUP4 DUP3 PUSH2 0x8C1 JUMP JUMPDEST PUSH2 0x188F DUP2 PUSH2 0x924 JUMP JUMPDEST PUSH2 0x1898 DUP2 PUSH2 0xCA9 JUMP JUMPDEST PUSH2 0x18A1 DUP2 PUSH2 0x12CE JUMP JUMPDEST PUSH2 0x18AA DUP2 PUSH2 0x13CD JUMP JUMPDEST PUSH2 0x18B3 DUP2 PUSH2 0x1551 JUMP JUMPDEST PUSH2 0x340 DUP3 SUB PUSH1 0x40 MSTORE DUP1 PUSH1 0x0 MSTORE PUSH1 0x20 PUSH1 0x0 RETURN JUMPDEST PUSH1 0x0 DUP1 REVERT JUMPDEST PUSH1 0x0 DUP1 REVERT JUMPDEST PUSH1 0x0 DUP2 SWAP1 POP DUP3 PUSH1 0x20 PUSH1 0x18 MUL DUP3 ADD GT ISZERO PUSH2 0x18EB JUMPI PUSH2 0x18EA PUSH2 0x18CA JUMP JUMPDEST JUMPDEST SWAP3 SWAP2 POP POP JUMP JUMPDEST PUSH1 0x0 DUP2 SWAP1 POP DUP3 PUSH1 0x20 PUSH1 0x1 MUL DUP3 ADD GT ISZERO PUSH2 0x190D JUMPI PUSH2 0x190C PUSH2 0x18CA JUMP JUMPDEST JUMPDEST SWAP3 SWAP2 POP POP JUMP JUMPDEST PUSH1 0x0 DUP1 PUSH2 0x320 DUP4 DUP6 SUB SLT ISZERO PUSH2 0x192B JUMPI PUSH2 0x192A PUSH2 0x18C5 JUMP JUMPDEST JUMPDEST PUSH1 0x0 PUSH2 0x1939 DUP6 DUP3 DUP7 ADD PUSH2 0x18CF JUMP JUMPDEST SWAP3 POP POP PUSH2 0x300 PUSH2 0x194B DUP6 DUP3 DUP7 ADD PUSH2 0x18F1 JUMP JUMPDEST SWAP2 POP POP SWAP3 POP SWAP3 SWAP1 POP JUMP JUMPDEST PUSH1 0x0 DUP2 ISZERO ISZERO SWAP1 POP SWAP2 SWAP1 POP JUMP JUMPDEST PUSH2 0x196A DUP2 PUSH2 0x1955 JUMP JUMPDEST DUP3 MSTORE POP POP JUMP JUMPDEST PUSH1 0x0 PUSH1 0x20 DUP3 ADD SWAP1 POP PUSH2 0x1985 PUSH1 0x0 DUP4 ADD DUP5 PUSH2 0x1961 JUMP JUMPDEST SWAP3 SWAP2 POP POP JUMP INVALID LOG2 PUSH5 0x6970667358 0x22 SLT KECCAK256 0xE PUSH20 0xEBAACDABFBF9E8694B71A3E2A8BCE3E81430C9F1 SMOD 0xEC SWAP12 0xD 0xC7 DIV CALLVALUE PUSH0 DUP7 PUSH17 0x64736F6C634300081C0033000000000000 "},"methodIdentifiers":{"verifyProof(uint256[24],uint256[1])":"ff7240a7"}}}}}