{
  "_format": "hh-sol-artifact-1",
  "contractName": "PlonkVerifier",
  "sourceName": "contracts/Verifier_c2.sol",
  "abi": [
    {
      "inputs": [
        {
          "internalType": "uint256[24]",
          "name": "_proof",
          "type": "uint256[24]"
        },
        {
          "internalType": "uint256[2]",
          "name": "_pubSignals",
          "type": "uint256[2]"
        }
      ],
      "name": "verifyProof",
      "outputs": [
        {
          "internalType": "bool",
          "name": "",
          "type": "bool"
        }
      ],
      "stateMutability": "view",
      "type": "function"
    }
  ],
  "bytecode": "0x6080604052348015600f57600080fd5b50611d868061001f6000396000f3fe608060405234801561001057600080fd5b506004361061002b5760003560e01c8063c0e9d81c14610030575b600080fd5b61004a60048036038101906100459190611cd8565b610060565b6040516100579190611d35565b60405180910390f35b6000611c1b565b600080600184846000805b821561009c5782840591508482028603905084955080945082820284039050829350809250610072565b60018411156100aa57600080fd5b60008612156100b95788860195505b85965050505050505092915050565b60405181602084028301815160208301925060005b82841015610120578185527f30644e72e131a029b85045b68181585d2833e84879b9709143e1f593f00000018451830991506020850194506020840193506100dd565b61014a7f30644e72e131a029b85045b68181585d2833e84879b9709143e1f593f000000183610067565b91506020850394506020840393508592505b828411156101c6577f30644e72e131a029b85045b68181585d2833e84879b9709143e1f593f00000018551830990507f30644e72e131a029b85045b68181585d2833e84879b9709143e1f593f000000184518309915080845260208503945060208403935061015c565b81845250505050505050565b7f30644e72e131a029b85045b68181585d2833e84879b9709143e1f593f00000018110610203576000805260206000f35b50565b610212610244356101d2565b61021e610264356101d2565b61022a610284356101d2565b6102366102a4356101d2565b6102426102c4356101d2565b61024e6102e4356101d2565b565b6000806040517f2f05976f369af031fcf9a7222a98dbff980ec8c5d8232d1053a43233e0906db381527f124a8d3c2a11fcc722b319b9138ba10f783145323539254ff6cda7bc4e6866d660208201527f1d1eb7216099c63c17b4479ff38ebbcbcd9106a9804e40cb98e6f57121a0d41d60408201527f2029e2bc735a9e1c6641bcfefafbdad9e50cdd15d464a879b0a6eefe0ae1f18260608201527f21f575abe7b0c4db9a1033c1afbb62ac99a6b0e20df022c550b04300f664538b60808201527f0c297c7bf0a24e46d4344289c8ef1139ae0bb049781a3a4890a34a8be22d60cc60a08201527f20a4179122db1772af5a7f8269b2575eb221d798a5c110335dc963d2b2d2a0e160c08201527f1cc04b7bcff2faf93315c500c877513bbb8d045e70ff7fc7369cc1368699c3d860e08201527f0f16fbaaec46d29de40e8964855ebcdb52f1c8524a2f3595190217361d5b56a36101008201527f12a0f8e019a21178e13e08c369b1cf472aac847c7874077f69c51974f4aee7fb6101208201527f0bd22852e6d12ecb01e98e639b07bf524a64f08496aae8c5134f16006bf9cf3a6101408201527f2bf057cc18eb093ba222791c57820a519c1de83c4fb69e80e6c7f5c1c8d7e49a6101608201527f1acda775012ccc77978cd35cca7347d23daf40ff6d30a1cd3524269da7e236a26101808201527f2b4c39cfdf9c403ab7be2d6b2be040557b5276a4d1d13722164ee983989e4a066101a08201527f1cf540e785f059be951279e6f6bba4103f604981977978a8b2558aa0338f32d46101c08201527f24d94db694c1f7786b3ef65c7fdfb6add1f7d37cb8958262578eac65fe7b576e6101e0820152600085013561020082015260208501356102208201526004356102408201526020600401356102608201526044356102808201526020604401356102a08201526084356102c08201526020608401356102e08201527f30644e72e131a029b85045b68181585d2833e84879b9709143e1f593f000000161030082200692508260208501527f30644e72e131a029b85045b68181585d2833e84879b9709143e1f593f0000001602080860120066040850152602084015181526040840151602082015260c4356040820152602060c4013560608201527f30644e72e131a029b85045b68181585d2833e84879b9709143e1f593f0000001608082200691508160008501527f30644e72e131a029b85045b68181585d2833e84879b9709143e1f593f00000018283096102c08501528181526101043560208201526020610104013560408201526101443560608201526020610144013560808201526101843560a08201526020610184013560c08201527f30644e72e131a029b85045b68181585d2833e84879b9709143e1f593f000000160e082200691508160608501528181526102443560208201526102643560408201526102843560608201526102a43560808201526102c43560a08201526102e43560c08201527f30644e72e131a029b85045b68181585d2833e84879b9709143e1f593f000000160e08220068060c08601527f30644e72e131a029b85045b68181585d2833e84879b9709143e1f593f000000183850960a08601527f30644e72e131a029b85045b68181585d2833e84879b9709143e1f593f000000183840992507f30644e72e131a029b85045b68181585d2833e84879b9709143e1f593f000000183840992507f30644e72e131a029b85045b68181585d2833e84879b9709143e1f593f000000183840992507f30644e72e131a029b85045b68181585d2833e84879b9709143e1f593f000000183840992507f30644e72e131a029b85045b68181585d2833e84879b9709143e1f593f000000183840992507f30644e72e131a029b85045b68181585d2833e84879b9709143e1f593f000000183840992507f30644e72e131a029b85045b68181585d2833e84879b9709143e1f593f000000183840992507f30644e72e131a029b85045b68181585d2833e84879b9709143e1f593f000000183840992507f30644e72e131a029b85045b68181585d2833e84879b9709143e1f593f000000183840992507f30644e72e131a029b85045b68181585d2833e84879b9709143e1f593f000000183840992507f30644e72e131a029b85045b68181585d2833e84879b9709143e1f593f000000183840992507f30644e72e131a029b85045b68181585d2833e84879b9709143e1f593f000000183840992508260808601527f30644e72e131a029b85045b68181585d2833e84879b9709143e1f593f0000001806001850301069250826102e0860152826103008601527f30644e72e131a029b85045b68181585d2833e84879b9709143e1f593f000000181820992508260e08601527f30644e72e131a029b85045b68181585d2833e84879b9709143e1f593f00000018184099250826101008601527f30644e72e131a029b85045b68181585d2833e84879b9709143e1f593f00000018184099250826101208601527f30644e72e131a029b85045b68181585d2833e84879b9709143e1f593f00000018184099250826101408601526101c435825260206101c4013560208301526102043560408301526020610204013560608301527f30644e72e131a029b85045b68181585d2833e84879b9709143e1f593f00000016080832006610160860152505050505050565b60017f30644e72e131a029b85045b68181585d2833e84879b9709143e1f593f0000001807f30644e72e131a029b85045b68181585d2833e84879b9709143e1f593f0000001836060860151030106611000096103208301527f30644e72e131a029b85045b68181585d2833e84879b9709143e1f593f00000017f0931d596de2fd10f01ddd073fd5a90a976f169c76f039bb91c4775720042d43a820990507f30644e72e131a029b85045b68181585d2833e84879b9709143e1f593f0000001807f30644e72e131a029b85045b68181585d2833e84879b9709143e1f593f000000183606086015103010661100009610340830152610afd600361030084016100c8565b6102e0820151600191507f30644e72e131a029b85045b68181585d2833e84879b9709143e1f593f000000181610320850151096103208401527f30644e72e131a029b85045b68181585d2833e84879b9709143e1f593f00000017f0931d596de2fd10f01ddd073fd5a90a976f169c76f039bb91c4775720042d43a830991507f30644e72e131a029b85045b68181585d2833e84879b9709143e1f593f00000018082610340860151098309610340840152505050565b60007f30644e72e131a029b85045b68181585d2833e84879b9709143e1f593f0000001807f30644e72e131a029b85045b68181585d2833e84879b9709143e1f593f00000016000860135610320860151098303010690507f30644e72e131a029b85045b68181585d2833e84879b9709143e1f593f0000001807f30644e72e131a029b85045b68181585d2833e84879b9709143e1f593f000000160208601356103408601510983030106905080610180830152505050565b6101808101517f30644e72e131a029b85045b68181585d2833e84879b9709143e1f593f00000016102c0830151610320840151097f30644e72e131a029b85045b68181585d2833e84879b9709143e1f593f0000001806102a43560208601510961024435087f30644e72e131a029b85045b68181585d2833e84879b9709143e1f593f00000016040850151820890507f30644e72e131a029b85045b68181585d2833e84879b9709143e1f593f0000001806102c43560208701510961026435087f30644e72e131a029b85045b68181585d2833e84879b9709143e1f593f00000016040860151820890507f30644e72e131a029b85045b68181585d2833e84879b9709143e1f593f0000001604086015161028435087f30644e72e131a029b85045b68181585d2833e84879b9709143e1f593f0000001817f30644e72e131a029b85045b68181585d2833e84879b9709143e1f593f0000001848609097f30644e72e131a029b85045b68181585d2833e84879b9709143e1f593f00000016102e435820990507f30644e72e131a029b85045b68181585d2833e84879b9709143e1f593f00000016000880151820990507f30644e72e131a029b85045b68181585d2833e84879b9709143e1f593f000000180867f30644e72e131a029b85045b68181585d2833e84879b9709143e1f593f0000001030687087f30644e72e131a029b85045b68181585d2833e84879b9709143e1f593f000000180837f30644e72e131a029b85045b68181585d2833e84879b9709143e1f593f0000001030682089050806101a08901525050505050505050565b81518152602082015160208201525050565b818152826020820152505050565b81358152602082013560208201525050565b6040518151815260208201516020820152825160408201526020830151606082015260408260808360066107d05a03fa80610f2e576000805260206000f35b50505050565b600060405183815284602082015285604082015260408160608360076107d05a03fa915081610f67576000805260206000f35b825160408201526020830151606082015260408360808360066107d05a03fa915081610f97576000805260206000f35b505050505050565b600060405183815284602082015285604082015260408360608360076107d05a03fa915081610fd2576000805260206000f35b505050505050565b610feb836020840151845184610f9f565b505050565b6101c08101604082015160405161010081016040526110507f12a0f8e019a21178e13e08c369b1cf472aac847c7874077f69c51974f4aee7fb7f0f16fbaaec46d29de40e8964855ebcdb52f1c8524a2f3595190217361d5b56a385610ecf565b6110c57f30644e72e131a029b85045b68181585d2833e84879b9709143e1f593f00000016102643561024435097f124a8d3c2a11fcc722b319b9138ba10f783145323539254ff6cda7bc4e6866d67f2f05976f369af031fcf9a7222a98dbff980ec8c5d8232d1053a43233e0906db386610f34565b611114610244357f2029e2bc735a9e1c6641bcfefafbdad9e50cdd15d464a879b0a6eefe0ae1f1827f1d1eb7216099c63c17b4479ff38ebbcbcd9106a9804e40cb98e6f57121a0d41d86610f34565b611163610264357f0c297c7bf0a24e46d4344289c8ef1139ae0bb049781a3a4890a34a8be22d60cc7f21f575abe7b0c4db9a1033c1afbb62ac99a6b0e20df022c550b04300f664538b86610f34565b6111b2610284357f1cc04b7bcff2faf93315c500c877513bbb8d045e70ff7fc7369cc1368699c3d87f20a4179122db1772af5a7f8269b2575eb221d798a5c110335dc963d2b2d2a0e186610f34565b60a08401517f30644e72e131a029b85045b68181585d2833e84879b9709143e1f593f0000001837f30644e72e131a029b85045b68181585d2833e84879b9709143e1f593f0000001836102443508087f30644e72e131a029b85045b68181585d2833e84879b9709143e1f593f0000001847f30644e72e131a029b85045b68181585d2833e84879b9709143e1f593f000000180600286096102643508087f30644e72e131a029b85045b68181585d2833e84879b9709143e1f593f0000001857f30644e72e131a029b85045b68181585d2833e84879b9709143e1f593f000000180600387096102843508087f30644e72e131a029b85045b68181585d2833e84879b9709143e1f593f000000160008901517f30644e72e131a029b85045b68181585d2833e84879b9709143e1f593f0000001837f30644e72e131a029b85045b68181585d2833e84879b9709143e1f593f000000186880909097f30644e72e131a029b85045b68181585d2833e84879b9709143e1f593f00000016102c08a01516103208b01510961134760c460c08901610edd565b6113a07f30644e72e131a029b85045b68181585d2833e84879b9709143e1f593f00000016101608c01517f30644e72e131a029b85045b68181585d2833e84879b9709143e1f593f00000018486080860c0890189610fda565b7f30644e72e131a029b85045b68181585d2833e84879b9709143e1f593f0000001887f30644e72e131a029b85045b68181585d2833e84879b9709143e1f593f0000001806102a43560208f01510961024435080894507f30644e72e131a029b85045b68181585d2833e84879b9709143e1f593f0000001887f30644e72e131a029b85045b68181585d2833e84879b9709143e1f593f0000001806102c43560208f01510961026435080893507f30644e72e131a029b85045b68181585d2833e84879b9709143e1f593f00000016102e4357f30644e72e131a029b85045b68181585d2833e84879b9709143e1f593f000000160208d015160008e0151090992506115357f30644e72e131a029b85045b68181585d2833e84879b9709143e1f593f0000001847f30644e72e131a029b85045b68181585d2833e84879b9709143e1f593f0000001878909097f24d94db694c1f7786b3ef65c7fdfb6add1f7d37cb8958262578eac65fe7b576e7f1cf540e785f059be951279e6f6bba4103f604981977978a8b2558aa0338f32d460408b01610f9f565b61154461010460808901610edd565b61156060808b0151602061014401356101443560808b01610f34565b7f30644e72e131a029b85045b68181585d2833e84879b9709143e1f593f000000160808b015160808c0151096115a481602061018401356101843560808c01610f34565b6115c06102e08c015160a08a015160808b015160808c01610f9f565b7f30644e72e131a029b85045b68181585d97816a916871ca8d3c208c16d87cfd47602060408a0101517f30644e72e131a029b85045b68181585d97816a916871ca8d3c208c16d87cfd470306602060408a0101527f30644e72e131a029b85045b68181585d97816a916871ca8d3c208c16d87cfd4760a08901517f30644e72e131a029b85045b68181585d97816a916871ca8d3c208c16d87cfd47030660a089015261166c888b610eef565b611679604089018b610eef565b611686608089018b610eef565b5050505050505050505050565b61020081016116a66101c0830182610ebd565b6116bd60c083015160206004013560043584610f34565b6116d460e083015160206044013560443584610f34565b6116ec61010083015160206084013560843584610f34565b61173d6101208301517f2bf057cc18eb093ba222791c57820a519c1de83c4fb69e80e6c7f5c1c8d7e49a7f0bd22852e6d12ecb01e98e639b07bf524a64f08496aae8c5134f16006bf9cf3a84610f34565b61178e6101408301517f2b4c39cfdf9c403ab7be2d6b2be040557b5276a4d1d13722164ee983989e4a067f1acda775012ccc77978cd35cca7347d23daf40ff6d30a1cd3524269da7e236a284610f34565b5050565b7f30644e72e131a029b85045b68181585d2833e84879b9709143e1f593f00000016101a08201517f30644e72e131a029b85045b68181585d2833e84879b9709143e1f593f000000103067f30644e72e131a029b85045b68181585d2833e84879b9709143e1f593f00000018060c08401516102443509820890507f30644e72e131a029b85045b68181585d2833e84879b9709143e1f593f00000018060e08401516102643509820890507f30644e72e131a029b85045b68181585d2833e84879b9709143e1f593f0000001806101008401516102843509820890507f30644e72e131a029b85045b68181585d2833e84879b9709143e1f593f0000001806101208401516102a43509820890507f30644e72e131a029b85045b68181585d2833e84879b9709143e1f593f0000001806101408401516102c43509820890507f30644e72e131a029b85045b68181585d2833e84879b9709143e1f593f0000001806101608401516102e435098208905061191281600260016102408601610f9f565b5050565b6000604051610240810160405261018081016101c08201610200830161193e6101c484610edd565b61194a61020483610edd565b61195a6101608701518386610fda565b6119648385610eef565b7f30644e72e131a029b85045b68181585d97816a916871ca8d3c208c16d87cfd4760208501517f30644e72e131a029b85045b68181585d97816a916871ca8d3c208c16d87cfd47030660208501527f228f5a72c1ba65a5768c4d586f2ea0d42ddbea413037173d2da5861e7d259dd660408501527f19a199df22a31e64c2a48a1cd0f0c0222237c5a5842e316d2e956623f62ad60f60608501527f11600b6358a8d7922377ad44766daf5cd6ee25aeb69e8e0704f2b19061e2101060808501527f0dddbf6229fa66fa896fa8b6d8f8695360a642b307eb29d087673ffd194395e860a0850152611a5c60608701518460c08701610fda565b7f30644e72e131a029b85045b68181585d2833e84879b9709143e1f593f00000016060870151610160880151097f30644e72e131a029b85045b68181585d2833e84879b9709143e1f593f00000017f0931d596de2fd10f01ddd073fd5a90a976f169c76f039bb91c4775720042d43a82099050611ada818484610fda565b611ae78260c08701610eef565b611af8610200880160c08701610eef565b7f30644e72e131a029b85045b68181585d97816a916871ca8d3c208c16d87cfd476020610240018801517f30644e72e131a029b85045b68181585d97816a916871ca8d3c208c16d87cfd470306602061024001880152611b5f610240880160c08701610eef565b7f198e9393920d483a7260bfb731fb5d25f1aa493335a9e71297e485b7aef312c26101008601527f1800deef121f1e76426a00665e5c4479674322d4f75edadd46debd5cd992f6ed6101208601527f090689d0585ff075ec9e99ad690c3395bc4b313370b38ef355acdadcd122975b6101408601527f12c85ea5db8c6deb4aab71808dcb408fe3d1e7690c43d37b4ce6cc0166fa7daa6101608601526020856101808760086107d05a03fa855181169650505050505050919050565b6040516103608101604052611c2e610206565b611c388382610250565b611c41816109fa565b611c4b8382610bb3565b611c5481610c6b565b611c5d81610ff0565b611c6681611693565b611c6f81611792565b611c7881611916565b61036082036040528060005260206000f35b600080fd5b600080fd5b600081905082602060180282011115611cb057611caf611c8f565b5b92915050565b600081905082602060020282011115611cd257611cd1611c8f565b5b92915050565b6000806103408385031215611cf057611cef611c8a565b5b6000611cfe85828601611c94565b925050610300611d1085828601611cb6565b9150509250929050565b60008115159050919050565b611d2f81611d1a565b82525050565b6000602082019050611d4a6000830184611d26565b9291505056fea2646970667358221220b442c093592492e379d74c6e443700937c2fe5604aed543d9533666eee6a8fac64736f6c634300081c0033",
  "linkReferences": {},
  "deployedLinkReferences": {}
}